{
  "transactions": [
    {
      "hash": "0x04c04219e2cd7db500349340fc4210384153e43553fc26ceb38f8bda4c6f6185",
      "transactionType": "CALL",
      "contractName": null,
      "contractAddress": "0x4070c8325e278ca1056e602e08d16d2d5cd79b27",
      "function": "mint(address,uint256)",
      "arguments": [
        "0xB2991E6d424ec7fdAcCFd916188A3E135Ea60317",
        "250000000000000000000"
      ],
      "transaction": {
        "from": "0xa89543a7145c68e52a4d584f1ceb123605131211",
        "to": "0x4070c8325e278ca1056e602e08d16d2d5cd79b27",
        "gas": "0x114f0",
        "value": "0x0",
        "input": "0x40c10f19000000000000000000000000b2991e6d424ec7fdaccfd916188a3e135ea6031700000000000000000000000000000000000000000000000d8d726b7177a80000",
        "nonce": "0x3d",
        "chainId": "0x14a34"
      },
      "additionalContracts": [],
      "isFixedGasLimit": false
    }
  ],
  "receipts": [
    {
      "status": "0x1",
      "cumulativeGasUsed": "0x1859c4",
      "logs": [
        {
          "address": "0x4070c8325e278ca1056e602e08d16d2d5cd79b27",
          "topics": [
            "0xddf252ad1be2c89b69c2b068fc378daa952ba7f163c4a11628f55a4df523b3ef",
            "0x0000000000000000000000000000000000000000000000000000000000000000",
            "0x000000000000000000000000b2991e6d424ec7fdaccfd916188a3e135ea60317"
          ],
          "data": "0x00000000000000000000000000000000000000000000000d8d726b7177a80000",
          "blockHash": "0x47fc9467d251dbd5eeb647877c8af1acaead87ac3f11244e5d2a514478eb5f5c",
          "blockNumber": "0x135ca98",
          "transactionHash": "0x04c04219e2cd7db500349340fc4210384153e43553fc26ceb38f8bda4c6f6185",
          "transactionIndex": "0xf",
          "logIndex": "0x1a",
          "removed": false
        }
      ],
      "logsBloom": "0x00000000000000000000000000000000000000000000000000000000000000000000000000000000000000000000000000000000000000000000000000000000000000000000000000000008000000000000000000000000000000000000200000000000020000000000000080000800000000000000000000000010000000000000000000000000000000000000000000000020000000000001000000000000000000000000000000000000000000000000000000000000002020000000000000000002000000000000000000000000000000000000000000000000000020000000000000000000000000000000000000000000000000000000000000000000",
      "type": "0x2",
      "transactionHash": "0x04c04219e2cd7db500349340fc4210384153e43553fc26ceb38f8bda4c6f6185",
      "transactionIndex": "0xf",
      "blockHash": "0x47fc9467d251dbd5eeb647877c8af1acaead87ac3f11244e5d2a514478eb5f5c",
      "blockNumber": "0x135ca98",
      "gasUsed": "0xc880",
      "effectiveGasPrice": "0x19046",
      "from": "0xa89543a7145c68e52a4d584f1ceb123605131211",
      "to": "0x4070c8325e278ca1056e602e08d16d2d5cd79b27",
      "contractAddress": null,
      "l1BaseFeeScalar": "0x44d",
      "l1BlobBaseFee": "0xa321",
      "l1BlobBaseFeeScalar": "0xa118b",
      "l1Fee": "0x2048fb28a",
      "l1GasPrice": "0x125241453",
      "l1GasUsed": "0x640"
    }
  ],
  "libraries": [],
  "pending": [],
  "returns": {},
  "timestamp": 1736373266,
  "chain": 84532,
  "commit": "b6f6726"
}