{
  "transactions": [
    {
      "hash": "0x013fb6e747787d76a1535d3cb58033bea10fbc717fd0068559d9ec19f61c7196",
      "transactionType": "CALL",
      "contractName": null,
      "contractAddress": "0x4070c8325e278ca1056e602e08d16d2d5cd79b27",
      "function": "mint(address,uint256)",
      "arguments": [
        "0x50C1e1A81EFeCd7f5A21166F5388a711abdb3a1a",
        "100000000000000000000"
      ],
      "transaction": {
        "from": "0xa89543a7145c68e52a4d584f1ceb123605131211",
        "to": "0x4070c8325e278ca1056e602e08d16d2d5cd79b27",
        "gas": "0x114f0",
        "value": "0x0",
        "input": "0x40c10f1900000000000000000000000050c1e1a81efecd7f5a21166f5388a711abdb3a1a0000000000000000000000000000000000000000000000056bc75e2d63100000",
        "nonce": "0x36",
        "chainId": "0x14a34"
      },
      "additionalContracts": [],
      "isFixedGasLimit": false
    }
  ],
  "receipts": [
    {
      "status": "0x1",
      "cumulativeGasUsed": "0x20082c",
      "logs": [
        {
          "address": "0x4070c8325e278ca1056e602e08d16d2d5cd79b27",
          "topics": [
            "0xddf252ad1be2c89b69c2b068fc378daa952ba7f163c4a11628f55a4df523b3ef",
            "0x0000000000000000000000000000000000000000000000000000000000000000",
            "0x00000000000000000000000050c1e1a81efecd7f5a21166f5388a711abdb3a1a"
          ],
          "data": "0x0000000000000000000000000000000000000000000000056bc75e2d63100000",
          "blockHash": "0x8afbeea56642d5f88a6113cea716180e3073cc7906a8bfedee93f85eef4e0f3b",
          "blockNumber": "0x134adf2",
          "transactionHash": "0x013fb6e747787d76a1535d3cb58033bea10fbc717fd0068559d9ec19f61c7196",
          "transactionIndex": "0x11",
          "logIndex": "0x23",
          "removed": false
        }
      ],
      "logsBloom": "0x00000000000000000000000000000000000000000000000000000000000000000000000000000000000000000000000000000000000000000000000000000000000000000000000000000008000000000000000000000000000000000000200000000000020000000000000000000800000000000000000000000010000001000000000000000000000000000000000000000020000000000000000000000000000000000000000000000000000000000000000000000000004020000000000000000002000000000000000000000000000000000000000000800000000020000000000000000000000000000000000000000000000000000000000000000000",
      "type": "0x2",
      "transactionHash": "0x013fb6e747787d76a1535d3cb58033bea10fbc717fd0068559d9ec19f61c7196",
      "transactionIndex": "0x11",
      "blockHash": "0x8afbeea56642d5f88a6113cea716180e3073cc7906a8bfedee93f85eef4e0f3b",
      "blockNumber": "0x134adf2",
      "gasUsed": "0xc880",
      "effectiveGasPrice": "0x188a8",
      "from": "0xa89543a7145c68e52a4d584f1ceb123605131211",
      "to": "0x4070c8325e278ca1056e602e08d16d2d5cd79b27",
      "contractAddress": null,
      "l1BaseFeeScalar": "0x44d",
      "l1BlobBaseFee": "0x8c33acc",
      "l1BlobBaseFeeScalar": "0xa118b",
      "l1Fee": "0xc30434b30",
      "l1GasPrice": "0x5a30a75c7",
      "l1GasUsed": "0x640"
    }
  ],
  "libraries": [],
  "pending": [],
  "returns": {},
  "timestamp": 1736227525,
  "chain": 84532,
  "commit": "2f122af"
}