{
  "transactions": [
    {
      "hash": "0xfc05ae8eac2908b0d13f4bbec7f56bc5f71041aa83630ec3a401642bcfb4e7c3",
      "transactionType": "CALL",
      "contractName": null,
      "contractAddress": "0x4070c8325e278ca1056e602e08d16d2d5cd79b27",
      "function": "mint(address,uint256)",
      "arguments": [
        "0x94831505368c2CE4fEB006B4C793cf406b88F223",
        "250000000000000000000"
      ],
      "transaction": {
        "from": "0xa89543a7145c68e52a4d584f1ceb123605131211",
        "to": "0x4070c8325e278ca1056e602e08d16d2d5cd79b27",
        "gas": "0x114f0",
        "value": "0x0",
        "input": "0x40c10f1900000000000000000000000094831505368c2ce4feb006b4c793cf406b88f22300000000000000000000000000000000000000000000000d8d726b7177a80000",
        "nonce": "0x3c",
        "chainId": "0x14a34"
      },
      "additionalContracts": [],
      "isFixedGasLimit": false
    }
  ],
  "receipts": [
    {
      "status": "0x1",
      "cumulativeGasUsed": "0x39e4c4",
      "logs": [
        {
          "address": "0x4070c8325e278ca1056e602e08d16d2d5cd79b27",
          "topics": [
            "0xddf252ad1be2c89b69c2b068fc378daa952ba7f163c4a11628f55a4df523b3ef",
            "0x0000000000000000000000000000000000000000000000000000000000000000",
            "0x00000000000000000000000094831505368c2ce4feb006b4c793cf406b88f223"
          ],
          "data": "0x00000000000000000000000000000000000000000000000d8d726b7177a80000",
          "blockHash": "0xfd5380efbc09294edc8ea75d74d3f888c9adcc682a3150c5bcbc3067215c8043",
          "blockNumber": "0x135c924",
          "transactionHash": "0xfc05ae8eac2908b0d13f4bbec7f56bc5f71041aa83630ec3a401642bcfb4e7c3",
          "transactionIndex": "0x2c",
          "logIndex": "0x44",
          "removed": false
        }
      ],
      "logsBloom": "0x00000000000000000000008000000000000000000000000000000000000000000000000000000000000000000000000000000000000000000000000000000000000000000000000000000008000000000000000000000000000000000000200000000000020000000000000000000800000000000000000000000010000000000000000000000000000000000000000000000020000000000000000000000000000000000000000000000000000000000000000000000000000020000000220000000002000000000000000000000000000000000000000000000000000020000000000000000000000000000000000000000000000000000000000000000000",
      "type": "0x2",
      "transactionHash": "0xfc05ae8eac2908b0d13f4bbec7f56bc5f71041aa83630ec3a401642bcfb4e7c3",
      "transactionIndex": "0x2c",
      "blockHash": "0xfd5380efbc09294edc8ea75d74d3f888c9adcc682a3150c5bcbc3067215c8043",
      "blockNumber": "0x135c924",
      "gasUsed": "0xc880",
      "effectiveGasPrice": "0x2067",
      "from": "0xa89543a7145c68e52a4d584f1ceb123605131211",
      "to": "0x4070c8325e278ca1056e602e08d16d2d5cd79b27",
      "contractAddress": null,
      "l1BaseFeeScalar": "0x44d",
      "l1BlobBaseFee": "0x44c5",
      "l1BlobBaseFeeScalar": "0xa118b",
      "l1Fee": "0x2db000e21",
      "l1GasPrice": "0x19eecab20",
      "l1GasUsed": "0x640"
    }
  ],
  "libraries": [],
  "pending": [],
  "returns": {},
  "timestamp": 1736372522,
  "chain": 84532,
  "commit": "b6f6726"
}