{
  "transactions": [
    {
      "hash": "0xf1efaaa85286ab773a91d955a201d1feab5a31a3d49ab33c9c7e252f9b034a7b",
      "transactionType": "CALL",
      "contractName": null,
      "contractAddress": "0x4070c8325e278ca1056e602e08d16d2d5cd79b27",
      "function": "mint(address,uint256)",
      "arguments": [
        "0x5FA9E2be94C4c6B6d050da3Ef6A6F2E23429bA46",
        "250000000000000000000"
      ],
      "transaction": {
        "from": "0xa89543a7145c68e52a4d584f1ceb123605131211",
        "to": "0x4070c8325e278ca1056e602e08d16d2d5cd79b27",
        "gas": "0x114f0",
        "value": "0x0",
        "input": "0x40c10f190000000000000000000000005fa9e2be94c4c6b6d050da3ef6a6f2e23429ba4600000000000000000000000000000000000000000000000d8d726b7177a80000",
        "nonce": "0x47",
        "chainId": "0x14a34"
      },
      "additionalContracts": [],
      "isFixedGasLimit": false
    }
  ],
  "receipts": [
    {
      "status": "0x1",
      "cumulativeGasUsed": "0x75cc9f",
      "logs": [
        {
          "address": "0x4070c8325e278ca1056e602e08d16d2d5cd79b27",
          "topics": [
            "0xddf252ad1be2c89b69c2b068fc378daa952ba7f163c4a11628f55a4df523b3ef",
            "0x0000000000000000000000000000000000000000000000000000000000000000",
            "0x0000000000000000000000005fa9e2be94c4c6b6d050da3ef6a6f2e23429ba46"
          ],
          "data": "0x00000000000000000000000000000000000000000000000d8d726b7177a80000",
          "blockHash": "0x60275ea8da7603e304b84b23253ffd92bf1f4866ba6f1647be52824d1f208296",
          "blockNumber": "0x13f94cf",
          "transactionHash": "0xf1efaaa85286ab773a91d955a201d1feab5a31a3d49ab33c9c7e252f9b034a7b",
          "transactionIndex": "0x17",
          "logIndex": "0x88",
          "removed": false
        }
      ],
      "logsBloom": "0x00000000000000000080000000000000000000000000010000000000000000000000000000000000000000000000000000000000000000000000000000000000000000000000000000000008000000000000000000080000000000000000200000000000020000000000000000000800000000000000000000000010000000000000000000000000000000000000000000000020000000000000000000000000000000000000000000000000000000000000000000000000000020000000000000000002000000000000000000000000000000000000000000000000000020000000000000000000000000000000000000000000000000000000000000000000",
      "type": "0x2",
      "transactionHash": "0xf1efaaa85286ab773a91d955a201d1feab5a31a3d49ab33c9c7e252f9b034a7b",
      "transactionIndex": "0x17",
      "blockHash": "0x60275ea8da7603e304b84b23253ffd92bf1f4866ba6f1647be52824d1f208296",
      "blockNumber": "0x13f94cf",
      "gasUsed": "0xc880",
      "effectiveGasPrice": "0xcadf8c",
      "from": "0xa89543a7145c68e52a4d584f1ceb123605131211",
      "to": "0x4070c8325e278ca1056e602e08d16d2d5cd79b27",
      "contractAddress": null,
      "l1BaseFeeScalar": "0x44d",
      "l1BlobBaseFee": "0x39afbecf",
      "l1BlobBaseFeeScalar": "0xa118b",
      "l1Fee": "0x197a9bda05",
      "l1GasPrice": "0x605ded58a",
      "l1GasUsed": "0x640"
    }
  ],
  "libraries": [],
  "pending": [],
  "returns": {},
  "timestamp": 1737656447,
  "chain": 84532,
  "commit": "91770ae"
}