{
  "transactions": [
    {
      "hash": "0x7ebf155799b037ab9ab7322e1ced8e67f3dc63b1efded25c07279cdd7a227fa8",
      "transactionType": "CALL",
      "contractName": null,
      "contractAddress": "0x4070c8325e278ca1056e602e08d16d2d5cd79b27",
      "function": "mint(address,uint256)",
      "arguments": [
        "0x5Fcd365AFC5220009f0f2261cb2f6dd863933903",
        "250000000000000000000"
      ],
      "transaction": {
        "from": "0xa89543a7145c68e52a4d584f1ceb123605131211",
        "to": "0x4070c8325e278ca1056e602e08d16d2d5cd79b27",
        "gas": "0x114df",
        "value": "0x0",
        "input": "0x40c10f190000000000000000000000005fcd365afc5220009f0f2261cb2f6dd86393390300000000000000000000000000000000000000000000000d8d726b7177a80000",
        "nonce": "0x4a",
        "chainId": "0x14a34"
      },
      "additionalContracts": [],
      "isFixedGasLimit": false
    }
  ],
  "receipts": [
    {
      "status": "0x1",
      "cumulativeGasUsed": "0x642657",
      "logs": [
        {
          "address": "0x4070c8325e278ca1056e602e08d16d2d5cd79b27",
          "topics": [
            "0xddf252ad1be2c89b69c2b068fc378daa952ba7f163c4a11628f55a4df523b3ef",
            "0x0000000000000000000000000000000000000000000000000000000000000000",
            "0x0000000000000000000000005fcd365afc5220009f0f2261cb2f6dd863933903"
          ],
          "data": "0x00000000000000000000000000000000000000000000000d8d726b7177a80000",
          "blockHash": "0x798d3d60aff382982dcd903a6b413e34b54d47836d8fe24c0c3b93bcdc45dace",
          "blockNumber": "0x13fd67c",
          "transactionHash": "0x7ebf155799b037ab9ab7322e1ced8e67f3dc63b1efded25c07279cdd7a227fa8",
          "transactionIndex": "0x2f",
          "logIndex": "0x7f",
          "removed": false
        }
      ],
      "logsBloom": "0x00000000000000000000000000000000000000000000000000000000000000000000000000000000000000000000000000000000000000000000000000000000000000000000000000000008000000000000000000000000000000000000200000000000020000000000010000000800000000000000000000000010000000000000000000000000000000000000000000000020000000000000000000000000000000000000000000000000000000000000000000000000000020000000000000000006000000000000000000000000000000000000002000000000000020000000000000000000000000000000000000000000000000000000000000000000",
      "type": "0x2",
      "transactionHash": "0x7ebf155799b037ab9ab7322e1ced8e67f3dc63b1efded25c07279cdd7a227fa8",
      "transactionIndex": "0x2f",
      "blockHash": "0x798d3d60aff382982dcd903a6b413e34b54d47836d8fe24c0c3b93bcdc45dace",
      "blockNumber": "0x13fd67c",
      "gasUsed": "0xc874",
      "effectiveGasPrice": "0x52e25f",
      "from": "0xa89543a7145c68e52a4d584f1ceb123605131211",
      "to": "0x4070c8325e278ca1056e602e08d16d2d5cd79b27",
      "contractAddress": null,
      "l1BaseFeeScalar": "0x44d",
      "l1BlobBaseFee": "0x1",
      "l1BlobBaseFeeScalar": "0xa118b",
      "l1Fee": "0x139eb5a77c",
      "l1GasPrice": "0xb233861f4",
      "l1GasUsed": "0x640"
    }
  ],
  "libraries": [],
  "pending": [],
  "returns": {},
  "timestamp": 1737690073,
  "chain": 84532,
  "commit": "91770ae"
}