{
  "transactions": [
    {
      "hash": "0xcd30524d5131926e3fe5e315fae937da2706b50cabb374aa5a1544763595e47e",
      "transactionType": "CALL",
      "contractName": null,
      "contractAddress": "0x4070c8325e278ca1056e602e08d16d2d5cd79b27",
      "function": "mint(address,uint256)",
      "arguments": [
        "0x07FfCf67239d3029E41A01c7Eb097F403D7B565F",
        "250000000000000000000"
      ],
      "transaction": {
        "from": "0xa89543a7145c68e52a4d584f1ceb123605131211",
        "to": "0x4070c8325e278ca1056e602e08d16d2d5cd79b27",
        "gas": "0x114f0",
        "value": "0x0",
        "input": "0x40c10f1900000000000000000000000007ffcf67239d3029e41a01c7eb097f403d7b565f00000000000000000000000000000000000000000000000d8d726b7177a80000",
        "nonce": "0x48",
        "chainId": "0x14a34"
      },
      "additionalContracts": [],
      "isFixedGasLimit": false
    }
  ],
  "receipts": [
    {
      "status": "0x1",
      "cumulativeGasUsed": "0x271787",
      "logs": [
        {
          "address": "0x4070c8325e278ca1056e602e08d16d2d5cd79b27",
          "topics": [
            "0xddf252ad1be2c89b69c2b068fc378daa952ba7f163c4a11628f55a4df523b3ef",
            "0x0000000000000000000000000000000000000000000000000000000000000000",
            "0x00000000000000000000000007ffcf67239d3029e41a01c7eb097f403d7b565f"
          ],
          "data": "0x00000000000000000000000000000000000000000000000d8d726b7177a80000",
          "blockHash": "0x4257d54a9c1bbf67e98167d8757f1536c3a0a53ccc2fa1c17b8f3cb3893e5c06",
          "blockNumber": "0x13fb4aa",
          "transactionHash": "0xcd30524d5131926e3fe5e315fae937da2706b50cabb374aa5a1544763595e47e",
          "transactionIndex": "0x1a",
          "logIndex": "0x35",
          "removed": false
        }
      ],
      "logsBloom": "0x00000000002000000000000000000000000000000000000000000000000000000000000000000000000000000000000000000000000000000000000000000000000000000000000000000008000000000000000000000000000000000000200000000000020000000000000000000800000000000010000000000010000000000000000000000000000000000000000000000020000000000000040000000000000000000000000000000000000000000000000000000000000020000000000000000002000000000000000000000000000000000000000000000000000020000000000000000000000000000000000000000000000000000000000000000000",
      "type": "0x2",
      "transactionHash": "0xcd30524d5131926e3fe5e315fae937da2706b50cabb374aa5a1544763595e47e",
      "transactionIndex": "0x1a",
      "blockHash": "0x4257d54a9c1bbf67e98167d8757f1536c3a0a53ccc2fa1c17b8f3cb3893e5c06",
      "blockNumber": "0x13fb4aa",
      "gasUsed": "0xc880",
      "effectiveGasPrice": "0xe1da64",
      "from": "0xa89543a7145c68e52a4d584f1ceb123605131211",
      "to": "0x4070c8325e278ca1056e602e08d16d2d5cd79b27",
      "contractAddress": null,
      "l1BaseFeeScalar": "0x44d",
      "l1BlobBaseFee": "0x1be0",
      "l1BlobBaseFeeScalar": "0xa118b",
      "l1Fee": "0x63315d4c",
      "l1GasPrice": "0x384add68",
      "l1GasUsed": "0x640"
    }
  ],
  "libraries": [],
  "pending": [],
  "returns": {},
  "timestamp": 1737672757,
  "chain": 84532,
  "commit": "91770ae"
}