{
  "transactions": [
    {
      "hash": "0xbe1d424ff15531bc69407436222327e76e7b3b3ddab2c61bd9bf96a0fabcdd3a",
      "transactionType": "CALL",
      "contractName": null,
      "contractAddress": "0x4070c8325e278ca1056e602e08d16d2d5cd79b27",
      "function": "mint(address,uint256)",
      "arguments": [
        "0xb21a282f9E6a9ACd2B7cEa89234bCBb0574D8D9B",
        "100000000000000000000"
      ],
      "transaction": {
        "from": "0xa89543a7145c68e52a4d584f1ceb123605131211",
        "to": "0x4070c8325e278ca1056e602e08d16d2d5cd79b27",
        "gas": "0x114f0",
        "value": "0x0",
        "input": "0x40c10f19000000000000000000000000b21a282f9e6a9acd2b7cea89234bcbb0574d8d9b0000000000000000000000000000000000000000000000056bc75e2d63100000",
        "nonce": "0x31",
        "chainId": "0x14a34"
      },
      "additionalContracts": [],
      "isFixedGasLimit": false
    }
  ],
  "receipts": [
    {
      "status": "0x1",
      "cumulativeGasUsed": "0x3006c8",
      "logs": [
        {
          "address": "0x4070c8325e278ca1056e602e08d16d2d5cd79b27",
          "topics": [
            "0xddf252ad1be2c89b69c2b068fc378daa952ba7f163c4a11628f55a4df523b3ef",
            "0x0000000000000000000000000000000000000000000000000000000000000000",
            "0x000000000000000000000000b21a282f9e6a9acd2b7cea89234bcbb0574d8d9b"
          ],
          "data": "0x0000000000000000000000000000000000000000000000056bc75e2d63100000",
          "blockHash": "0x3ee93b1410d8fad63a20e61af57e3ffac1e1848f3a8a03c50a13a6fc5805fd24",
          "blockNumber": "0x13435f2",
          "transactionHash": "0xbe1d424ff15531bc69407436222327e76e7b3b3ddab2c61bd9bf96a0fabcdd3a",
          "transactionIndex": "0x14",
          "logIndex": "0x37",
          "removed": false
        }
      ],
      "logsBloom": "0x00000000002000000000000000000000000000000000000000001000000000000000000000000000000000000000000000000000000000000000000000000000000000000000000000000008000000000000004000000000000000000000200000000000020000000000000000000800000000000000000000000010000000000000000000000000000000000000000000000020000000000000000000000000000000000000000000000000000000000000000000000000000020000000000000000002000000000000000000000000000000000000000000000000000020000000000000000000000000000000000000000000000000000000000000000000",
      "type": "0x2",
      "transactionHash": "0xbe1d424ff15531bc69407436222327e76e7b3b3ddab2c61bd9bf96a0fabcdd3a",
      "transactionIndex": "0x14",
      "blockHash": "0x3ee93b1410d8fad63a20e61af57e3ffac1e1848f3a8a03c50a13a6fc5805fd24",
      "blockNumber": "0x13435f2",
      "gasUsed": "0xc880",
      "effectiveGasPrice": "0x481",
      "from": "0xa89543a7145c68e52a4d584f1ceb123605131211",
      "to": "0x4070c8325e278ca1056e602e08d16d2d5cd79b27",
      "contractAddress": null,
      "l1BaseFeeScalar": "0x44d",
      "l1BlobBaseFee": "0x6c1d8d5f",
      "l1BlobBaseFeeScalar": "0xa118b",
      "l1Fee": "0x22b235886d",
      "l1GasPrice": "0x3e064d6ca",
      "l1GasUsed": "0x640"
    }
  ],
  "libraries": [],
  "pending": [],
  "returns": {},
  "timestamp": 1736166086,
  "chain": 84532,
  "commit": "843823e"
}