{
  "transactions": [
    {
      "hash": "0x50367b1fa85045d8ed75b7d9ca4fa29870c9e28a4f15a0accada7cdca21cbcaf",
      "transactionType": "CALL",
      "contractName": null,
      "contractAddress": "0x4070c8325e278ca1056e602e08d16d2d5cd79b27",
      "function": "mint(address,uint256)",
      "arguments": [
        "0xceEF16ef18D88e30bC31e472F8678F4F6cE6d3a5",
        "250000000000000000000"
      ],
      "transaction": {
        "from": "0xa89543a7145c68e52a4d584f1ceb123605131211",
        "to": "0x4070c8325e278ca1056e602e08d16d2d5cd79b27",
        "gas": "0x114f0",
        "value": "0x0",
        "input": "0x40c10f19000000000000000000000000ceef16ef18d88e30bc31e472f8678f4f6ce6d3a500000000000000000000000000000000000000000000000d8d726b7177a80000",
        "nonce": "0x41",
        "chainId": "0x14a34"
      },
      "additionalContracts": [],
      "isFixedGasLimit": false
    }
  ],
  "receipts": [
    {
      "status": "0x1",
      "cumulativeGasUsed": "0x352817",
      "logs": [
        {
          "address": "0x4070c8325e278ca1056e602e08d16d2d5cd79b27",
          "topics": [
            "0xddf252ad1be2c89b69c2b068fc378daa952ba7f163c4a11628f55a4df523b3ef",
            "0x0000000000000000000000000000000000000000000000000000000000000000",
            "0x000000000000000000000000ceef16ef18d88e30bc31e472f8678f4f6ce6d3a5"
          ],
          "data": "0x00000000000000000000000000000000000000000000000d8d726b7177a80000",
          "blockHash": "0x9113dcdec3a17ea4d7c8f6e5a44f71667999ff4e49582701b993997b8e872982",
          "blockNumber": "0x135cd35",
          "transactionHash": "0x50367b1fa85045d8ed75b7d9ca4fa29870c9e28a4f15a0accada7cdca21cbcaf",
          "transactionIndex": "0x16",
          "logIndex": "0x32",
          "removed": false
        }
      ],
      "logsBloom": "0x00000000000000000000000000000000000000000000000000000000000000000000000000000800000000000000000000000000000000000000000000000000000000000000000000000008000000000000000000000000000000000000200000000000020000000000000000000800000000000000000000000010000000000000000000000000000000000000000000000020000000000000000000000000000000000000000000000000000000000000000000000000000020000000000000000002000000000000000000000000001000000000000000000000000020000000000000000000000000000000000000000000000000000000000800000000",
      "type": "0x2",
      "transactionHash": "0x50367b1fa85045d8ed75b7d9ca4fa29870c9e28a4f15a0accada7cdca21cbcaf",
      "transactionIndex": "0x16",
      "blockHash": "0x9113dcdec3a17ea4d7c8f6e5a44f71667999ff4e49582701b993997b8e872982",
      "blockNumber": "0x135cd35",
      "gasUsed": "0xc880",
      "effectiveGasPrice": "0x18d61",
      "from": "0xa89543a7145c68e52a4d584f1ceb123605131211",
      "to": "0x4070c8325e278ca1056e602e08d16d2d5cd79b27",
      "contractAddress": null,
      "l1BaseFeeScalar": "0x44d",
      "l1BlobBaseFee": "0xdf54",
      "l1BlobBaseFeeScalar": "0xa118b",
      "l1Fee": "0x145fdf88b",
      "l1GasPrice": "0xb8ed48e1",
      "l1GasUsed": "0x640"
    }
  ],
  "libraries": [],
  "pending": [],
  "returns": {},
  "timestamp": 1736374603,
  "chain": 84532,
  "commit": "b6f6726"
}