{
  "transactions": [
    {
      "hash": "0x8e4683098c8f647e7df07b8348bd919433c970dc1ec34c7fb47a10d6f5ec689b",
      "transactionType": "CALL",
      "contractName": null,
      "contractAddress": "0x4070c8325e278ca1056e602e08d16d2d5cd79b27",
      "function": "mint(address,uint256)",
      "arguments": [
        "0xceEF16ef18D88e30bC31e472F8678F4F6cE6d3a5",
        "250000000000000000000"
      ],
      "transaction": {
        "from": "0xa89543a7145c68e52a4d584f1ceb123605131211",
        "to": "0x4070c8325e278ca1056e602e08d16d2d5cd79b27",
        "gas": "0xb8ad",
        "value": "0x0",
        "input": "0x40c10f19000000000000000000000000ceef16ef18d88e30bc31e472f8678f4f6ce6d3a500000000000000000000000000000000000000000000000d8d726b7177a80000",
        "nonce": "0x43",
        "chainId": "0x14a34"
      },
      "additionalContracts": [],
      "isFixedGasLimit": false
    }
  ],
  "receipts": [
    {
      "status": "0x1",
      "cumulativeGasUsed": "0x1ee562",
      "logs": [
        {
          "address": "0x4070c8325e278ca1056e602e08d16d2d5cd79b27",
          "topics": [
            "0xddf252ad1be2c89b69c2b068fc378daa952ba7f163c4a11628f55a4df523b3ef",
            "0x0000000000000000000000000000000000000000000000000000000000000000",
            "0x000000000000000000000000ceef16ef18d88e30bc31e472f8678f4f6ce6d3a5"
          ],
          "data": "0x00000000000000000000000000000000000000000000000d8d726b7177a80000",
          "blockHash": "0xeb3d81fc95a8e0fc8ae7bcad79324d95a0e8d8cb27fe86ed20b8320166794908",
          "blockNumber": "0x135d1ab",
          "transactionHash": "0x8e4683098c8f647e7df07b8348bd919433c970dc1ec34c7fb47a10d6f5ec689b",
          "transactionIndex": "0x11",
          "logIndex": "0x2c",
          "removed": false
        }
      ],
      "logsBloom": "0x00000000000000000000000000000000000000000000000000000000000000000000000000000800000000000000000000000000000000000000000000000000000000000000000000000008000000000000000000000000000000000000200000000000020000000000000000000800000000000000000000000010000000000000000000000000000000000000000000000020000000000000000000000000000000000000000000000000000000000000000000000000000020000000000000000002000000000000000000000000001000000000000000000000000020000000000000000000000000000000000000000000000000000000000800000000",
      "type": "0x2",
      "transactionHash": "0x8e4683098c8f647e7df07b8348bd919433c970dc1ec34c7fb47a10d6f5ec689b",
      "transactionIndex": "0x11",
      "blockHash": "0xeb3d81fc95a8e0fc8ae7bcad79324d95a0e8d8cb27fe86ed20b8320166794908",
      "blockNumber": "0x135d1ab",
      "gasUsed": "0x85b4",
      "effectiveGasPrice": "0x18af7",
      "from": "0xa89543a7145c68e52a4d584f1ceb123605131211",
      "to": "0x4070c8325e278ca1056e602e08d16d2d5cd79b27",
      "contractAddress": null,
      "l1BaseFeeScalar": "0x44d",
      "l1BlobBaseFee": "0x14ab6",
      "l1BlobBaseFeeScalar": "0xa118b",
      "l1Fee": "0xf03a829b",
      "l1GasPrice": "0x882e3599",
      "l1GasUsed": "0x640"
    }
  ],
  "libraries": [],
  "pending": [],
  "returns": {},
  "timestamp": 1736376888,
  "chain": 84532,
  "commit": "fd57086"
}