{
  "transactions": [
    {
      "hash": "0x0b86703415a7303c64b6c76c31338e5cc01ba829ef594f995219209b7c926f02",
      "transactionType": "CALL",
      "contractName": null,
      "contractAddress": "0x4070c8325e278ca1056e602e08d16d2d5cd79b27",
      "function": "mint(address,uint256)",
      "arguments": [
        "0xd6239ce59e04f17B34EEF91fb632068f2EEA11C3",
        "250000000000000000000"
      ],
      "transaction": {
        "from": "0xa89543a7145c68e52a4d584f1ceb123605131211",
        "to": "0x4070c8325e278ca1056e602e08d16d2d5cd79b27",
        "gas": "0x114f0",
        "value": "0x0",
        "input": "0x40c10f19000000000000000000000000d6239ce59e04f17b34eef91fb632068f2eea11c300000000000000000000000000000000000000000000000d8d726b7177a80000",
        "nonce": "0x3f",
        "chainId": "0x14a34"
      },
      "additionalContracts": [],
      "isFixedGasLimit": false
    }
  ],
  "receipts": [
    {
      "status": "0x1",
      "cumulativeGasUsed": "0x297850",
      "logs": [
        {
          "address": "0x4070c8325e278ca1056e602e08d16d2d5cd79b27",
          "topics": [
            "0xddf252ad1be2c89b69c2b068fc378daa952ba7f163c4a11628f55a4df523b3ef",
            "0x0000000000000000000000000000000000000000000000000000000000000000",
            "0x000000000000000000000000d6239ce59e04f17b34eef91fb632068f2eea11c3"
          ],
          "data": "0x00000000000000000000000000000000000000000000000d8d726b7177a80000",
          "blockHash": "0xa0a4ec67ed98d19d8b85f370acfe24f7b826978a16a08f0140648447b420ce1f",
          "blockNumber": "0x135cc72",
          "transactionHash": "0x0b86703415a7303c64b6c76c31338e5cc01ba829ef594f995219209b7c926f02",
          "transactionIndex": "0x1d",
          "logIndex": "0x35",
          "removed": false
        }
      ],
      "logsBloom": "0x00000000000000000000000000000000000000000000000000000000000000000000000000000000000000000000000000000000000000000000000000000000000000000000000000000008000000000000000000000000000000000000200000000000020000000000000000000800000000000000000000000010000000000000000000000000000000000000000000000020000000000000000000000000000000000000000000000000000010000000000000000000000020000000000000000002000000000000000000000000000000000000000000000000000020000000000000000000000000000000000000000000000000040080000000000000",
      "type": "0x2",
      "transactionHash": "0x0b86703415a7303c64b6c76c31338e5cc01ba829ef594f995219209b7c926f02",
      "transactionIndex": "0x1d",
      "blockHash": "0xa0a4ec67ed98d19d8b85f370acfe24f7b826978a16a08f0140648447b420ce1f",
      "blockNumber": "0x135cc72",
      "gasUsed": "0xc880",
      "effectiveGasPrice": "0x170f",
      "from": "0xa89543a7145c68e52a4d584f1ceb123605131211",
      "to": "0x4070c8325e278ca1056e602e08d16d2d5cd79b27",
      "contractAddress": null,
      "l1BaseFeeScalar": "0x44d",
      "l1BlobBaseFee": "0x11aa6",
      "l1BlobBaseFeeScalar": "0xa118b",
      "l1Fee": "0x1ba635adf",
      "l1GasPrice": "0xfaf78f47",
      "l1GasUsed": "0x640"
    }
  ],
  "libraries": [],
  "pending": [],
  "returns": {},
  "timestamp": 1736374213,
  "chain": 84532,
  "commit": "b6f6726"
}