{
  "transactions": [
    {
      "hash": "0xbae4b50cf5699735ed2975e252d747a94663cab15a89f45edb1938caec307d82",
      "transactionType": "CALL",
      "contractName": null,
      "contractAddress": "0x4070c8325e278ca1056e602e08d16d2d5cd79b27",
      "function": "mint(address,uint256)",
      "arguments": [
        "0x44eebCC90997236859aE598f231ca6De1fbDC94f",
        "250000000000000000000"
      ],
      "transaction": {
        "from": "0xa89543a7145c68e52a4d584f1ceb123605131211",
        "to": "0x4070c8325e278ca1056e602e08d16d2d5cd79b27",
        "gas": "0x114f0",
        "value": "0x0",
        "input": "0x40c10f1900000000000000000000000044eebcc90997236859ae598f231ca6de1fbdc94f00000000000000000000000000000000000000000000000d8d726b7177a80000",
        "nonce": "0x4e",
        "chainId": "0x14a34"
      },
      "additionalContracts": [],
      "isFixedGasLimit": false
    }
  ],
  "receipts": [
    {
      "status": "0x1",
      "cumulativeGasUsed": "0x78f2b9",
      "logs": [
        {
          "address": "0x4070c8325e278ca1056e602e08d16d2d5cd79b27",
          "topics": [
            "0xddf252ad1be2c89b69c2b068fc378daa952ba7f163c4a11628f55a4df523b3ef",
            "0x0000000000000000000000000000000000000000000000000000000000000000",
            "0x00000000000000000000000044eebcc90997236859ae598f231ca6de1fbdc94f"
          ],
          "data": "0x00000000000000000000000000000000000000000000000d8d726b7177a80000",
          "blockHash": "0x26ef9a035eeb03418cdfd917bb6a5b1b0228d15fe2436681f9a09605511bd26b",
          "blockNumber": "0x1447330",
          "transactionHash": "0xbae4b50cf5699735ed2975e252d747a94663cab15a89f45edb1938caec307d82",
          "transactionIndex": "0x36",
          "logIndex": "0xb8",
          "removed": false
        }
      ],
      "logsBloom": "0x00000000000000000000000000000000000000000000000000000000000000000000000000000000000000000000000000000000000000000000200000000000000000000000000000000008000000000000000000000000000000000000200000000000020000000000000000000800000000000000000000000010000000000800000000000000000000000000000000000020000000000000000000000000000000000000000000000000000000000000000000001000000020000000000000000002000000000000000000000000000000000000000000000000000020000000000000000000000000000000000000000000000000000000000000000000",
      "type": "0x2",
      "transactionHash": "0xbae4b50cf5699735ed2975e252d747a94663cab15a89f45edb1938caec307d82",
      "transactionIndex": "0x36",
      "blockHash": "0x26ef9a035eeb03418cdfd917bb6a5b1b0228d15fe2436681f9a09605511bd26b",
      "blockNumber": "0x1447330",
      "gasUsed": "0xc880",
      "effectiveGasPrice": "0x1880a",
      "from": "0xa89543a7145c68e52a4d584f1ceb123605131211",
      "to": "0x4070c8325e278ca1056e602e08d16d2d5cd79b27",
      "contractAddress": null,
      "l1BaseFeeScalar": "0x44d",
      "l1BlobBaseFee": "0x1",
      "l1BlobBaseFeeScalar": "0xa118b",
      "l1Fee": "0xecb51020",
      "l1GasPrice": "0x865ee08d",
      "l1GasUsed": "0x640"
    }
  ],
  "libraries": [],
  "pending": [],
  "returns": {},
  "timestamp": 1738294594,
  "chain": 84532,
  "commit": "4802601"
}