{
  "transactions": [
    {
      "hash": "0x30fe739a729e5317ae3dbb5b681375db7ee0c6839f0071b16e20330e1c808e1a",
      "transactionType": "CALL",
      "contractName": null,
      "contractAddress": "0x4070c8325e278ca1056e602e08d16d2d5cd79b27",
      "function": "mint(address,uint256)",
      "arguments": [
        "0xbC635BdF517E9dD08A14b8eA775E1360B97dC9b2",
        "250000000000000000000"
      ],
      "transaction": {
        "from": "0xa89543a7145c68e52a4d584f1ceb123605131211",
        "to": "0x4070c8325e278ca1056e602e08d16d2d5cd79b27",
        "gas": "0x114f0",
        "value": "0x0",
        "input": "0x40c10f19000000000000000000000000bc635bdf517e9dd08a14b8ea775e1360b97dc9b200000000000000000000000000000000000000000000000d8d726b7177a80000",
        "nonce": "0x4b",
        "chainId": "0x14a34"
      },
      "additionalContracts": [],
      "isFixedGasLimit": false
    }
  ],
  "receipts": [
    {
      "status": "0x1",
      "cumulativeGasUsed": "0x3f3b79",
      "logs": [
        {
          "address": "0x4070c8325e278ca1056e602e08d16d2d5cd79b27",
          "topics": [
            "0xddf252ad1be2c89b69c2b068fc378daa952ba7f163c4a11628f55a4df523b3ef",
            "0x0000000000000000000000000000000000000000000000000000000000000000",
            "0x000000000000000000000000bc635bdf517e9dd08a14b8ea775e1360b97dc9b2"
          ],
          "data": "0x00000000000000000000000000000000000000000000000d8d726b7177a80000",
          "blockHash": "0x260d3f5559321064b7bfc4d16ef8ee4f2bc0f241222692314a118e1917891ae9",
          "blockNumber": "0x13fe2a7",
          "transactionHash": "0x30fe739a729e5317ae3dbb5b681375db7ee0c6839f0071b16e20330e1c808e1a",
          "transactionIndex": "0x22",
          "logIndex": "0x63",
          "removed": false
        }
      ],
      "logsBloom": "0x00000010000000000000000000000000000000000000000000000000000000000000000000000000000000000000000000000000000000000000000000000000000000000000000000000008000000000000000000000000000000000000200000000000020000000000000000000800000000000000000000000010000000000000000000000000000000000000400000000020000000000000000040000000000000000000000000000000000000000000000000000000000020000000000000000002000000000000000000000000000000000000000000000000000020000000000000000000000000000000000000000000000000000000000000000000",
      "type": "0x2",
      "transactionHash": "0x30fe739a729e5317ae3dbb5b681375db7ee0c6839f0071b16e20330e1c808e1a",
      "transactionIndex": "0x22",
      "blockHash": "0x260d3f5559321064b7bfc4d16ef8ee4f2bc0f241222692314a118e1917891ae9",
      "blockNumber": "0x13fe2a7",
      "gasUsed": "0xc880",
      "effectiveGasPrice": "0x213180c",
      "from": "0xa89543a7145c68e52a4d584f1ceb123605131211",
      "to": "0x4070c8325e278ca1056e602e08d16d2d5cd79b27",
      "contractAddress": null,
      "l1BaseFeeScalar": "0x44d",
      "l1BlobBaseFee": "0x1",
      "l1BlobBaseFeeScalar": "0xa118b",
      "l1Fee": "0x565b2dbb8",
      "l1GasPrice": "0x31057d00e",
      "l1GasUsed": "0x640"
    }
  ],
  "libraries": [],
  "pending": [],
  "returns": {},
  "timestamp": 1737696304,
  "chain": 84532,
  "commit": "12c7581"
}