{
  "transactions": [
    {
      "hash": "0x5d91c216cf2e2fbba3997070586dcf28efe5c0650145af87f8b3f2bbb897b861",
      "transactionType": "CALL",
      "contractName": null,
      "contractAddress": "0x4070c8325e278ca1056e602e08d16d2d5cd79b27",
      "function": "mint(address,uint256)",
      "arguments": [
        "0xc137cAe1c3af926C80c7902e8491FFDbAD2Ba259",
        "250000000000000000000"
      ],
      "transaction": {
        "from": "0xa89543a7145c68e52a4d584f1ceb123605131211",
        "to": "0x4070c8325e278ca1056e602e08d16d2d5cd79b27",
        "gas": "0x114f0",
        "value": "0x0",
        "input": "0x40c10f19000000000000000000000000c137cae1c3af926c80c7902e8491ffdbad2ba25900000000000000000000000000000000000000000000000d8d726b7177a80000",
        "nonce": "0x39",
        "chainId": "0x14a34"
      },
      "additionalContracts": [],
      "isFixedGasLimit": false
    }
  ],
  "receipts": [
    {
      "status": "0x1",
      "cumulativeGasUsed": "0x1dbaec",
      "logs": [
        {
          "address": "0x4070c8325e278ca1056e602e08d16d2d5cd79b27",
          "topics": [
            "0xddf252ad1be2c89b69c2b068fc378daa952ba7f163c4a11628f55a4df523b3ef",
            "0x0000000000000000000000000000000000000000000000000000000000000000",
            "0x000000000000000000000000c137cae1c3af926c80c7902e8491ffdbad2ba259"
          ],
          "data": "0x00000000000000000000000000000000000000000000000d8d726b7177a80000",
          "blockHash": "0x7899a292b64291e2a4dc4b9c81e24d371b26ae161e65d065198f3119d2b4ba57",
          "blockNumber": "0x135b700",
          "transactionHash": "0x5d91c216cf2e2fbba3997070586dcf28efe5c0650145af87f8b3f2bbb897b861",
          "transactionIndex": "0x17",
          "logIndex": "0x2d",
          "removed": false
        }
      ],
      "logsBloom": "0x00000000000000000000000000000000000000000000000000000000000000000000000000000000000000000000000000000000000000000000000000000000000000010000000000000008000000000000000000000000000000000000200000000000020000000000000000000800000000000000000000000010000000000000000000000000000000000000000000000020000000000000000000000000000000000000000000000000000000000000000000000000000020000000000000000002008000000040000000000000000000000000000000000000000020000000000000000000000000000000000000000000000000000000000000000000",
      "type": "0x2",
      "transactionHash": "0x5d91c216cf2e2fbba3997070586dcf28efe5c0650145af87f8b3f2bbb897b861",
      "transactionIndex": "0x17",
      "blockHash": "0x7899a292b64291e2a4dc4b9c81e24d371b26ae161e65d065198f3119d2b4ba57",
      "blockNumber": "0x135b700",
      "gasUsed": "0xc880",
      "effectiveGasPrice": "0xbbb03",
      "from": "0xa89543a7145c68e52a4d584f1ceb123605131211",
      "to": "0x4070c8325e278ca1056e602e08d16d2d5cd79b27",
      "contractAddress": null,
      "l1BaseFeeScalar": "0x44d",
      "l1BlobBaseFee": "0x1",
      "l1BlobBaseFeeScalar": "0xa118b",
      "l1Fee": "0x3a19e1378",
      "l1GasPrice": "0x20fb6466e",
      "l1GasUsed": "0x640"
    }
  ],
  "libraries": [],
  "pending": [],
  "returns": {},
  "timestamp": 1736363234,
  "chain": 84532,
  "commit": "56a78a5"
}