{
  "transactions": [
    {
      "hash": "0x73318965cef89f2369119f8885fe5be0d4a4e1d707fb13fbd3ea2b77c425ee26",
      "transactionType": "CALL",
      "contractName": null,
      "contractAddress": "0x4070c8325e278ca1056e602e08d16d2d5cd79b27",
      "function": "mint(address,uint256)",
      "arguments": [
        "0xb43428f7533aB5c53de4eeAcD43D1c5A44CCc6D9",
        "100000000000000000000"
      ],
      "transaction": {
        "from": "0xa89543a7145c68e52a4d584f1ceb123605131211",
        "to": "0x4070c8325e278ca1056e602e08d16d2d5cd79b27",
        "gas": "0x114f0",
        "value": "0x0",
        "input": "0x40c10f19000000000000000000000000b43428f7533ab5c53de4eeacd43d1c5a44ccc6d90000000000000000000000000000000000000000000000056bc75e2d63100000",
        "nonce": "0x33",
        "chainId": "0x14a34"
      },
      "additionalContracts": [],
      "isFixedGasLimit": false
    }
  ],
  "receipts": [
    {
      "status": "0x1",
      "cumulativeGasUsed": "0x102f8d5",
      "logs": [
        {
          "address": "0x4070c8325e278ca1056e602e08d16d2d5cd79b27",
          "topics": [
            "0xddf252ad1be2c89b69c2b068fc378daa952ba7f163c4a11628f55a4df523b3ef",
            "0x0000000000000000000000000000000000000000000000000000000000000000",
            "0x000000000000000000000000b43428f7533ab5c53de4eeacd43d1c5a44ccc6d9"
          ],
          "data": "0x0000000000000000000000000000000000000000000000056bc75e2d63100000",
          "blockHash": "0xb4fe5130c9230cb942ab85b6e227c028490f28f7feff1be8129ea5971b8128a7",
          "blockNumber": "0x134382a",
          "transactionHash": "0x73318965cef89f2369119f8885fe5be0d4a4e1d707fb13fbd3ea2b77c425ee26",
          "transactionIndex": "0x7e",
          "logIndex": "0x118",
          "removed": false
        }
      ],
      "logsBloom": "0x00000000000000000000000000000000000000000000000000000000000000000000000000000000000000000000000000000000000000000000000000000000000000000000000000000008000000000000000000000000000000000000200000000000020000000000000000000800000000000000000000000010000000000000040000000000000000000000000000000020000000000000000000000000000000000000000000000000000000000000000000000000000120000000000000000002000000000000000000000000000000000000000000000000000020000000000000000000000000000000000000400000000000000000000000000000",
      "type": "0x2",
      "transactionHash": "0x73318965cef89f2369119f8885fe5be0d4a4e1d707fb13fbd3ea2b77c425ee26",
      "transactionIndex": "0x7e",
      "blockHash": "0xb4fe5130c9230cb942ab85b6e227c028490f28f7feff1be8129ea5971b8128a7",
      "blockNumber": "0x134382a",
      "gasUsed": "0xc880",
      "effectiveGasPrice": "0xf438c",
      "from": "0xa89543a7145c68e52a4d584f1ceb123605131211",
      "to": "0x4070c8325e278ca1056e602e08d16d2d5cd79b27",
      "contractAddress": null,
      "l1BaseFeeScalar": "0x44d",
      "l1BlobBaseFee": "0x7223341d4",
      "l1BlobBaseFeeScalar": "0xa118b",
      "l1Fee": "0x1dc8c451a13",
      "l1GasPrice": "0x3503e4fbc",
      "l1GasUsed": "0x640"
    }
  ],
  "libraries": [],
  "pending": [],
  "returns": {},
  "timestamp": 1736167223,
  "chain": 84532,
  "commit": "843823e"
}